{
  "_format": "hh-sol-artifact-1",
  "contractName": "PlayGame",
  "sourceName": "contracts/PlayGame.sol",
  "abi": [
    {
      "inputs": [
        {
          "internalType": "address",
          "name": "_gameToken",
          "type": "address"
        }
      ],
      "stateMutability": "nonpayable",
      "type": "constructor"
    },
    {
      "anonymous": false,
      "inputs": [
        {
          "indexed": true,
          "internalType": "bytes32",
          "name": "matchId",
          "type": "bytes32"
        },
        {
          "indexed": false,
          "internalType": "address",
          "name": "player1",
          "type": "address"
        },
        {
          "indexed": false,
          "internalType": "address",
          "name": "player2",
          "type": "address"
        },
        {
          "indexed": false,
          "internalType": "uint256",
          "name": "stake",
          "type": "uint256"
        }
      ],
      "name": "MatchCreated",
      "type": "event"
    },
    {
      "anonymous": false,
      "inputs": [
        {
          "indexed": true,
          "internalType": "address",
          "name": "previousOwner",
          "type": "address"
        },
        {
          "indexed": true,
          "internalType": "address",
          "name": "newOwner",
          "type": "address"
        }
      ],
      "name": "OwnershipTransferred",
      "type": "event"
    },
    {
      "anonymous": false,
      "inputs": [
        {
          "indexed": true,
          "internalType": "bytes32",
          "name": "matchId",
          "type": "bytes32"
        },
        {
          "indexed": false,
          "internalType": "address",
          "name": "player",
          "type": "address"
        },
        {
          "indexed": false,
          "internalType": "uint256",
          "name": "amount",
          "type": "uint256"
        }
      ],
      "name": "Refunded",
      "type": "event"
    },
    {
      "anonymous": false,
      "inputs": [
        {
          "indexed": true,
          "internalType": "bytes32",
          "name": "matchId",
          "type": "bytes32"
        },
        {
          "indexed": false,
          "internalType": "address",
          "name": "winner",
          "type": "address"
        },
        {
          "indexed": false,
          "internalType": "uint256",
          "name": "amount",
          "type": "uint256"
        }
      ],
      "name": "Settled",
      "type": "event"
    },
    {
      "anonymous": false,
      "inputs": [
        {
          "indexed": true,
          "internalType": "bytes32",
          "name": "matchId",
          "type": "bytes32"
        },
        {
          "indexed": false,
          "internalType": "address",
          "name": "player",
          "type": "address"
        },
        {
          "indexed": false,
          "internalType": "uint256",
          "name": "amount",
          "type": "uint256"
        }
      ],
      "name": "Staked",
      "type": "event"
    },
    {
      "inputs": [],
      "name": "TIMEOUT_PERIOD",
      "outputs": [
        {
          "internalType": "uint256",
          "name": "",
          "type": "uint256"
        }
      ],
      "stateMutability": "view",
      "type": "function"
    },
    {
      "inputs": [
        {
          "internalType": "bytes32",
          "name": "matchId",
          "type": "bytes32"
        },
        {
          "internalType": "address",
          "name": "winner",
          "type": "address"
        }
      ],
      "name": "commitResult",
      "outputs": [],
      "stateMutability": "nonpayable",
      "type": "function"
    },
    {
      "inputs": [
        {
          "internalType": "bytes32",
          "name": "matchId",
          "type": "bytes32"
        },
        {
          "internalType": "address",
          "name": "player1",
          "type": "address"
        },
        {
          "internalType": "address",
          "name": "player2",
          "type": "address"
        },
        {
          "internalType": "uint256",
          "name": "matchStake",
          "type": "uint256"
        }
      ],
      "name": "createMatch",
      "outputs": [],
      "stateMutability": "nonpayable",
      "type": "function"
    },
    {
      "inputs": [],
      "name": "gameToken",
      "outputs": [
        {
          "internalType": "contract IERC20",
          "name": "",
          "type": "address"
        }
      ],
      "stateMutability": "view",
      "type": "function"
    },
    {
      "inputs": [
        {
          "internalType": "bytes32",
          "name": "matchId",
          "type": "bytes32"
        }
      ],
      "name": "getMatch",
      "outputs": [
        {
          "internalType": "address",
          "name": "player1",
          "type": "address"
        },
        {
          "internalType": "address",
          "name": "player2",
          "type": "address"
        },
        {
          "internalType": "uint256",
          "name": "stake",
          "type": "uint256"
        },
        {
          "internalType": "enum PlayGame.MatchStatus",
          "name": "status",
          "type": "uint8"
        },
        {
          "internalType": "uint256",
          "name": "startTime",
          "type": "uint256"
        },
        {
          "internalType": "bool",
          "name": "player1Staked",
          "type": "bool"
        },
        {
          "internalType": "bool",
          "name": "player2Staked",
          "type": "bool"
        }
      ],
      "stateMutability": "view",
      "type": "function"
    },
    {
      "inputs": [
        {
          "internalType": "bytes32",
          "name": "",
          "type": "bytes32"
        }
      ],
      "name": "matches",
      "outputs": [
        {
          "internalType": "address",
          "name": "player1",
          "type": "address"
        },
        {
          "internalType": "address",
          "name": "player2",
          "type": "address"
        },
        {
          "internalType": "uint256",
          "name": "stake",
          "type": "uint256"
        },
        {
          "internalType": "enum PlayGame.MatchStatus",
          "name": "status",
          "type": "uint8"
        },
        {
          "internalType": "uint256",
          "name": "startTime",
          "type": "uint256"
        },
        {
          "internalType": "bool",
          "name": "player1Staked",
          "type": "bool"
        },
        {
          "internalType": "bool",
          "name": "player2Staked",
          "type": "bool"
        }
      ],
      "stateMutability": "view",
      "type": "function"
    },
    {
      "inputs": [],
      "name": "owner",
      "outputs": [
        {
          "internalType": "address",
          "name": "",
          "type": "address"
        }
      ],
      "stateMutability": "view",
      "type": "function"
    },
    {
      "inputs": [
        {
          "internalType": "bytes32",
          "name": "matchId",
          "type": "bytes32"
        }
      ],
      "name": "refund",
      "outputs": [],
      "stateMutability": "nonpayable",
      "type": "function"
    },
    {
      "inputs": [],
      "name": "renounceOwnership",
      "outputs": [],
      "stateMutability": "nonpayable",
      "type": "function"
    },
    {
      "inputs": [
        {
          "internalType": "bytes32",
          "name": "matchId",
          "type": "bytes32"
        }
      ],
      "name": "stake",
      "outputs": [],
      "stateMutability": "nonpayable",
      "type": "function"
    },
    {
      "inputs": [
        {
          "internalType": "address",
          "name": "newOwner",
          "type": "address"
        }
      ],
      "name": "transferOwnership",
      "outputs": [],
      "stateMutability": "nonpayable",
      "type": "function"
    }
  ],
  "bytecode": "0x60806040523480156200001157600080fd5b506040516200236e3803806200236e8339818101604052810190620000379190620001dc565b620000576200004b620000a660201b60201c565b620000ae60201b60201c565b6001808190555080600260006101000a81548173ffffffffffffffffffffffffffffffffffffffff021916908373ffffffffffffffffffffffffffffffffffffffff160217905550506200020e565b600033905090565b60008060009054906101000a900473ffffffffffffffffffffffffffffffffffffffff169050816000806101000a81548173ffffffffffffffffffffffffffffffffffffffff021916908373ffffffffffffffffffffffffffffffffffffffff1602179055508173ffffffffffffffffffffffffffffffffffffffff168173ffffffffffffffffffffffffffffffffffffffff167f8be0079c531659141344cd1fd0a4f28419497f9722a3daafe3b4186f6b6457e060405160405180910390a35050565b600080fd5b600073ffffffffffffffffffffffffffffffffffffffff82169050919050565b6000620001a48262000177565b9050919050565b620001b68162000197565b8114620001c257600080fd5b50565b600081519050620001d681620001ab565b92915050565b600060208284031215620001f557620001f462000172565b5b60006200020584828501620001c5565b91505092915050565b612150806200021e6000396000f3fe608060405234801561001057600080fd5b50600436106100a95760003560e01c80639fe9ada3116100715780639fe9ada31461012a578063c0d64a8714610160578063c3dfdae61461017c578063f2fde38b1461019a578063f5fce245146101b6578063fcc6077d146101d4576100a9565b8063270ab7f5146100ae5780633acb3700146100ca578063715018a6146100e65780637249fbb6146100f05780638da5cb5b1461010c575b600080fd5b6100c860048036038101906100c39190611553565b61020a565b005b6100e460048036038101906100df91906115c9565b61051d565b005b6100ee610974565b005b61010a60048036038101906101059190611630565b610988565b005b610114610c7c565b604051610121919061166c565b60405180910390f35b610144600480360381019061013f9190611630565b610ca5565b6040516101579796959493929190611728565b60405180910390f35b61017a60048036038101906101759190611630565b610d4e565b005b6101846111a3565b60405161019191906117f6565b60405180910390f35b6101b460048036038101906101af9190611811565b6111c9565b005b6101be61124c565b6040516101cb919061183e565b60405180910390f35b6101ee60048036038101906101e99190611630565b611253565b6040516102019796959493929190611728565b60405180910390f35b610212610c7c565b73ffffffffffffffffffffffffffffffffffffffff163373ffffffffffffffffffffffffffffffffffffffff161461027f576040517f08c379a0000000000000000000000000000000000000000000000000000000008152600401610276906118b6565b60405180910390fd5b6000600360008481526020019081526020016000209050600160038111156102aa576102a9611696565b5b8160030160009054906101000a900460ff1660038111156102ce576102cd611696565b5b1461030e576040517f08c379a000000000000000000000000000000000000000000000000000000000815260040161030590611922565b60405180910390fd5b8060000160009054906101000a900473ffffffffffffffffffffffffffffffffffffffff1673ffffffffffffffffffffffffffffffffffffffff168273ffffffffffffffffffffffffffffffffffffffff1614806103bb57508060010160009054906101000a900473ffffffffffffffffffffffffffffffffffffffff1673ffffffffffffffffffffffffffffffffffffffff168273ffffffffffffffffffffffffffffffffffffffff16145b6103fa576040517f08c379a00000000000000000000000000000000000000000000000000000000081526004016103f19061198e565b60405180910390fd5b60006002826002015461040d91906119dd565b9050600260009054906101000a900473ffffffffffffffffffffffffffffffffffffffff1673ffffffffffffffffffffffffffffffffffffffff1663a9059cbb84836040518363ffffffff1660e01b815260040161046c929190611a1f565b6020604051808303816000875af115801561048b573d6000803e3d6000fd5b505050506040513d601f19601f820116820180604052508101906104af9190611a74565b5060028260030160006101000a81548160ff021916908360038111156104d8576104d7611696565b5b0217905550837f16cfaad9ef877ffdcfedd9eae2009b4d27454094546f8fab5fbb10129037afc8848360405161050f929190611a1f565b60405180910390a250505050565b610525610c7c565b73ffffffffffffffffffffffffffffffffffffffff163373ffffffffffffffffffffffffffffffffffffffff1614610592576040517f08c379a0000000000000000000000000000000000000000000000000000000008152600401610589906118b6565b60405180910390fd5b600073ffffffffffffffffffffffffffffffffffffffff168373ffffffffffffffffffffffffffffffffffffffff16141580156105fc5750600073ffffffffffffffffffffffffffffffffffffffff168273ffffffffffffffffffffffffffffffffffffffff1614155b61063b576040517f08c379a000000000000000000000000000000000000000000000000000000000815260040161063290611aed565b60405180910390fd5b8173ffffffffffffffffffffffffffffffffffffffff168373ffffffffffffffffffffffffffffffffffffffff16036106a9576040517f08c379a00000000000000000000000000000000000000000000000000000000081526004016106a090611b59565b60405180910390fd5b600081116106ec576040517f08c379a00000000000000000000000000000000000000000000000000000000081526004016106e390611bc5565b60405180910390fd5b600073ffffffffffffffffffffffffffffffffffffffff166003600086815260200190815260200160002060000160009054906101000a900473ffffffffffffffffffffffffffffffffffffffff1673ffffffffffffffffffffffffffffffffffffffff1614610791576040517f08c379a000000000000000000000000000000000000000000000000000000000815260040161078890611c31565b60405180910390fd5b6040518060e001604052808473ffffffffffffffffffffffffffffffffffffffff1681526020018373ffffffffffffffffffffffffffffffffffffffff168152602001828152602001600060038111156107ee576107ed611696565b5b815260200160008152602001600015158152602001600015158152506003600086815260200190815260200160002060008201518160000160006101000a81548173ffffffffffffffffffffffffffffffffffffffff021916908373ffffffffffffffffffffffffffffffffffffffff16021790555060208201518160010160006101000a81548173ffffffffffffffffffffffffffffffffffffffff021916908373ffffffffffffffffffffffffffffffffffffffff1602179055506040820151816002015560608201518160030160006101000a81548160ff021916908360038111156108e0576108df611696565b5b02179055506080820151816004015560a08201518160050160006101000a81548160ff02191690831515021790555060c08201518160050160016101000a81548160ff021916908315150217905550905050837f4becde1621d018f3c4630cadb81bbd72061cd951ebaab5e8b10d5b2fecfa49ce84848460405161096693929190611c51565b60405180910390a250505050565b61097c611318565b6109866000611396565b565b61099061145a565b60006003600083815260200190815260200160002090508060000160009054906101000a900473ffffffffffffffffffffffffffffffffffffffff1673ffffffffffffffffffffffffffffffffffffffff163373ffffffffffffffffffffffffffffffffffffffff161480610a5457508060010160009054906101000a900473ffffffffffffffffffffffffffffffffffffffff1673ffffffffffffffffffffffffffffffffffffffff163373ffffffffffffffffffffffffffffffffffffffff16145b610a93576040517f08c379a0000000000000000000000000000000000000000000000000000000008152600401610a8a90611cd4565b60405180910390fd5b60016003811115610aa757610aa6611696565b5b8160030160009054906101000a900460ff166003811115610acb57610aca611696565b5b14610b0b576040517f08c379a0000000000000000000000000000000000000000000000000000000008152600401610b0290611922565b60405180910390fd5b620151808160040154610b1e9190611cf4565b421015610b60576040517f08c379a0000000000000000000000000000000000000000000000000000000008152600401610b5790611d74565b60405180910390fd5b600260009054906101000a900473ffffffffffffffffffffffffffffffffffffffff1673ffffffffffffffffffffffffffffffffffffffff1663a9059cbb3383600201546040518363ffffffff1660e01b8152600401610bc1929190611a1f565b6020604051808303816000875af1158015610be0573d6000803e3d6000fd5b505050506040513d601f19601f82011682018060405250810190610c049190611a74565b5060038160030160006101000a81548160ff02191690836003811115610c2d57610c2c611696565b5b0217905550817ff552ca82e113ac3c539c3d617f29fcd19c172a0c75dad017555c9e109f7fe183338360020154604051610c68929190611a1f565b60405180910390a250610c796114a9565b50565b60008060009054906101000a900473ffffffffffffffffffffffffffffffffffffffff16905090565b60036020528060005260406000206000915090508060000160009054906101000a900473ffffffffffffffffffffffffffffffffffffffff16908060010160009054906101000a900473ffffffffffffffffffffffffffffffffffffffff16908060020154908060030160009054906101000a900460ff16908060040154908060050160009054906101000a900460ff16908060050160019054906101000a900460ff16905087565b610d5661145a565b600060036000838152602001908152602001600020905060006003811115610d8157610d80611696565b5b8160030160009054906101000a900460ff166003811115610da557610da4611696565b5b14610de5576040517f08c379a0000000000000000000000000000000000000000000000000000000008152600401610ddc90611de0565b60405180910390fd5b8060000160009054906101000a900473ffffffffffffffffffffffffffffffffffffffff1673ffffffffffffffffffffffffffffffffffffffff163373ffffffffffffffffffffffffffffffffffffffff161480610e9257508060010160009054906101000a900473ffffffffffffffffffffffffffffffffffffffff1673ffffffffffffffffffffffffffffffffffffffff163373ffffffffffffffffffffffffffffffffffffffff16145b610ed1576040517f08c379a0000000000000000000000000000000000000000000000000000000008152600401610ec890611e4c565b60405180910390fd5b8060000160009054906101000a900473ffffffffffffffffffffffffffffffffffffffff1673ffffffffffffffffffffffffffffffffffffffff163373ffffffffffffffffffffffffffffffffffffffff1603610f9c578060050160009054906101000a900460ff1615610f7a576040517f08c379a0000000000000000000000000000000000000000000000000000000008152600401610f7190611eb8565b60405180910390fd5b60018160050160006101000a81548160ff02191690831515021790555061100c565b8060050160019054906101000a900460ff1615610fee576040517f08c379a0000000000000000000000000000000000000000000000000000000008152600401610fe590611f24565b60405180910390fd5b60018160050160016101000a81548160ff0219169083151502179055505b600260009054906101000a900473ffffffffffffffffffffffffffffffffffffffff1673ffffffffffffffffffffffffffffffffffffffff166323b872dd333084600201546040518463ffffffff1660e01b815260040161106f93929190611c51565b6020604051808303816000875af115801561108e573d6000803e3d6000fd5b505050506040513d601f19601f820116820180604052508101906110b29190611a74565b6110f1576040517f08c379a00000000000000000000000000000000000000000000000000000000081526004016110e890611f90565b60405180910390fd5b817f33d3d5394940f875165e970f73650b86770fcee50f641313bb760de473fb601f338360020154604051611127929190611a1f565b60405180910390a28060050160009054906101000a900460ff16801561115b57508060050160019054906101000a900460ff165b156111975760018160030160006101000a81548160ff0219169083600381111561118857611187611696565b5b02179055504281600401819055505b506111a06114a9565b50565b600260009054906101000a900473ffffffffffffffffffffffffffffffffffffffff1681565b6111d1611318565b600073ffffffffffffffffffffffffffffffffffffffff168173ffffffffffffffffffffffffffffffffffffffff1603611240576040517f08c379a000000000000000000000000000000000000000000000000000000000815260040161123790612022565b60405180910390fd5b61124981611396565b50565b6201518081565b600080600080600080600080600360008a815260200190815260200160002090508060000160009054906101000a900473ffffffffffffffffffffffffffffffffffffffff168160010160009054906101000a900473ffffffffffffffffffffffffffffffffffffffff1682600201548360030160009054906101000a900460ff1684600401548560050160009054906101000a900460ff168660050160019054906101000a900460ff16975097509750975097509750975050919395979092949650565b6113206114b2565b73ffffffffffffffffffffffffffffffffffffffff1661133e610c7c565b73ffffffffffffffffffffffffffffffffffffffff1614611394576040517f08c379a000000000000000000000000000000000000000000000000000000000815260040161138b9061208e565b60405180910390fd5b565b60008060009054906101000a900473ffffffffffffffffffffffffffffffffffffffff169050816000806101000a81548173ffffffffffffffffffffffffffffffffffffffff021916908373ffffffffffffffffffffffffffffffffffffffff1602179055508173ffffffffffffffffffffffffffffffffffffffff168173ffffffffffffffffffffffffffffffffffffffff167f8be0079c531659141344cd1fd0a4f28419497f9722a3daafe3b4186f6b6457e060405160405180910390a35050565b60026001540361149f576040517f08c379a0000000000000000000000000000000000000000000000000000000008152600401611496906120fa565b60405180910390fd5b6002600181905550565b60018081905550565b600033905090565b600080fd5b6000819050919050565b6114d2816114bf565b81146114dd57600080fd5b50565b6000813590506114ef816114c9565b92915050565b600073ffffffffffffffffffffffffffffffffffffffff82169050919050565b6000611520826114f5565b9050919050565b61153081611515565b811461153b57600080fd5b50565b60008135905061154d81611527565b92915050565b6000806040838503121561156a576115696114ba565b5b6000611578858286016114e0565b92505060206115898582860161153e565b9150509250929050565b6000819050919050565b6115a681611593565b81146115b157600080fd5b50565b6000813590506115c38161159d565b92915050565b600080600080608085870312156115e3576115e26114ba565b5b60006115f1878288016114e0565b94505060206116028782880161153e565b93505060406116138782880161153e565b9250506060611624878288016115b4565b91505092959194509250565b600060208284031215611646576116456114ba565b5b6000611654848285016114e0565b91505092915050565b61166681611515565b82525050565b6000602082019050611681600083018461165d565b92915050565b61169081611593565b82525050565b7f4e487b7100000000000000000000000000000000000000000000000000000000600052602160045260246000fd5b600481106116d6576116d5611696565b5b50565b60008190506116e7826116c5565b919050565b60006116f7826116d9565b9050919050565b611707816116ec565b82525050565b60008115159050919050565b6117228161170d565b82525050565b600060e08201905061173d600083018a61165d565b61174a602083018961165d565b6117576040830188611687565b61176460608301876116fe565b6117716080830186611687565b61177e60a0830185611719565b61178b60c0830184611719565b98975050505050505050565b6000819050919050565b60006117bc6117b76117b2846114f5565b611797565b6114f5565b9050919050565b60006117ce826117a1565b9050919050565b60006117e0826117c3565b9050919050565b6117f0816117d5565b82525050565b600060208201905061180b60008301846117e7565b92915050565b600060208284031215611827576118266114ba565b5b60006118358482850161153e565b91505092915050565b60006020820190506118536000830184611687565b92915050565b600082825260208201905092915050565b7f4f6e6c7920617574686f72697a6564206f70657261746f720000000000000000600082015250565b60006118a0601883611859565b91506118ab8261186a565b602082019050919050565b600060208201905081810360008301526118cf81611893565b9050919050565b7f4d61746368206e6f74207374616b656400000000000000000000000000000000600082015250565b600061190c601083611859565b9150611917826118d6565b602082019050919050565b6000602082019050818103600083015261193b816118ff565b9050919050565b7f57696e6e6572206d7573742062652061206d6174636820706c61796572000000600082015250565b6000611978601d83611859565b915061198382611942565b602082019050919050565b600060208201905081810360008301526119a78161196b565b9050919050565b7f4e487b7100000000000000000000000000000000000000000000000000000000600052601160045260246000fd5b60006119e882611593565b91506119f383611593565b9250828202611a0181611593565b91508282048414831517611a1857611a176119ae565b5b5092915050565b6000604082019050611a34600083018561165d565b611a416020830184611687565b9392505050565b611a518161170d565b8114611a5c57600080fd5b50565b600081519050611a6e81611a48565b92915050565b600060208284031215611a8a57611a896114ba565b5b6000611a9884828501611a5f565b91505092915050565b7f496e76616c696420706c61796572206164647265737365730000000000000000600082015250565b6000611ad7601883611859565b9150611ae282611aa1565b602082019050919050565b60006020820190508181036000830152611b0681611aca565b9050919050565b7f506c6179657273206d75737420626520646966666572656e7400000000000000600082015250565b6000611b43601983611859565b9150611b4e82611b0d565b602082019050919050565b60006020820190508181036000830152611b7281611b36565b9050919050565b7f5374616b65206d7573742062652067726561746572207468616e203000000000600082015250565b6000611baf601c83611859565b9150611bba82611b79565b602082019050919050565b60006020820190508181036000830152611bde81611ba2565b9050919050565b7f4d6174636820616c726561647920657869737473000000000000000000000000600082015250565b6000611c1b601483611859565b9150611c2682611be5565b602082019050919050565b60006020820190508181036000830152611c4a81611c0e565b9050919050565b6000606082019050611c66600083018661165d565b611c73602083018561165d565b611c806040830184611687565b949350505050565b7f4f6e6c79206d6174636820706c61796572732063616e20726566756e64000000600082015250565b6000611cbe601d83611859565b9150611cc982611c88565b602082019050919050565b60006020820190508181036000830152611ced81611cb1565b9050919050565b6000611cff82611593565b9150611d0a83611593565b9250828201905080821115611d2257611d216119ae565b5b92915050565b7f54696d656f757420706572696f64206e6f742072656163686564000000000000600082015250565b6000611d5e601a83611859565b9150611d6982611d28565b602082019050919050565b60006020820190508181036000830152611d8d81611d51565b9050919050565b7f4d61746368206e6f7420696e2070656e64696e67207374617475730000000000600082015250565b6000611dca601b83611859565b9150611dd582611d94565b602082019050919050565b60006020820190508181036000830152611df981611dbd565b9050919050565b7f4f6e6c79206d6174636820706c61796572732063616e207374616b6500000000600082015250565b6000611e36601c83611859565b9150611e4182611e00565b602082019050919050565b60006020820190508181036000830152611e6581611e29565b9050919050565b7f506c61796572203120616c7265616479207374616b6564000000000000000000600082015250565b6000611ea2601783611859565b9150611ead82611e6c565b602082019050919050565b60006020820190508181036000830152611ed181611e95565b9050919050565b7f506c61796572203220616c7265616479207374616b6564000000000000000000600082015250565b6000611f0e601783611859565b9150611f1982611ed8565b602082019050919050565b60006020820190508181036000830152611f3d81611f01565b9050919050565b7f4754207472616e73666572206661696c65640000000000000000000000000000600082015250565b6000611f7a601283611859565b9150611f8582611f44565b602082019050919050565b60006020820190508181036000830152611fa981611f6d565b9050919050565b7f4f776e61626c653a206e6577206f776e657220697320746865207a65726f206160008201527f6464726573730000000000000000000000000000000000000000000000000000602082015250565b600061200c602683611859565b915061201782611fb0565b604082019050919050565b6000602082019050818103600083015261203b81611fff565b9050919050565b7f4f776e61626c653a2063616c6c6572206973206e6f7420746865206f776e6572600082015250565b6000612078602083611859565b915061208382612042565b602082019050919050565b600060208201905081810360008301526120a78161206b565b9050919050565b7f5265656e7472616e637947756172643a207265656e7472616e742063616c6c00600082015250565b60006120e4601f83611859565b91506120ef826120ae565b602082019050919050565b60006020820190508181036000830152612113816120d7565b905091905056fea26469706673582212203d27a889f3a71716eb4d71ebda9c9cebef87184dde7c6c8b5dfc57abcceef0b664736f6c63430008130033",
  "linkReferences": {},
  "deployedLinkReferences": {}
}