{
  "_format": "hh-sol-artifact-1",
  "contractName": "TokenStore",
  "sourceName": "contracts/TokenStore.sol",
  "abi": [
    {
      "inputs": [
        {
          "internalType": "address",
          "name": "_usdtContract",
          "type": "address"
        },
        {
          "internalType": "address",
          "name": "_gameTokenContract",
          "type": "address"
        },
        {
          "internalType": "uint256",
          "name": "_gtPerUsdt",
          "type": "uint256"
        }
      ],
      "stateMutability": "nonpayable",
      "type": "constructor"
    },
    {
      "anonymous": false,
      "inputs": [
        {
          "indexed": true,
          "internalType": "address",
          "name": "previousOwner",
          "type": "address"
        },
        {
          "indexed": true,
          "internalType": "address",
          "name": "newOwner",
          "type": "address"
        }
      ],
      "name": "OwnershipTransferred",
      "type": "event"
    },
    {
      "anonymous": false,
      "inputs": [
        {
          "indexed": false,
          "internalType": "address",
          "name": "buyer",
          "type": "address"
        },
        {
          "indexed": false,
          "internalType": "uint256",
          "name": "usdtAmount",
          "type": "uint256"
        },
        {
          "indexed": false,
          "internalType": "uint256",
          "name": "gtAmount",
          "type": "uint256"
        }
      ],
      "name": "Purchase",
      "type": "event"
    },
    {
      "inputs": [
        {
          "internalType": "uint256",
          "name": "usdtAmount",
          "type": "uint256"
        }
      ],
      "name": "buy",
      "outputs": [],
      "stateMutability": "nonpayable",
      "type": "function"
    },
    {
      "inputs": [],
      "name": "gameTokenContract",
      "outputs": [
        {
          "internalType": "contract GameToken",
          "name": "",
          "type": "address"
        }
      ],
      "stateMutability": "view",
      "type": "function"
    },
    {
      "inputs": [],
      "name": "gtPerUsdt",
      "outputs": [
        {
          "internalType": "uint256",
          "name": "",
          "type": "uint256"
        }
      ],
      "stateMutability": "view",
      "type": "function"
    },
    {
      "inputs": [],
      "name": "owner",
      "outputs": [
        {
          "internalType": "address",
          "name": "",
          "type": "address"
        }
      ],
      "stateMutability": "view",
      "type": "function"
    },
    {
      "inputs": [],
      "name": "renounceOwnership",
      "outputs": [],
      "stateMutability": "nonpayable",
      "type": "function"
    },
    {
      "inputs": [
        {
          "internalType": "address",
          "name": "newOwner",
          "type": "address"
        }
      ],
      "name": "transferOwnership",
      "outputs": [],
      "stateMutability": "nonpayable",
      "type": "function"
    },
    {
      "inputs": [
        {
          "internalType": "uint256",
          "name": "_newRate",
          "type": "uint256"
        }
      ],
      "name": "updateGtPerUsdt",
      "outputs": [],
      "stateMutability": "nonpayable",
      "type": "function"
    },
    {
      "inputs": [],
      "name": "usdtContract",
      "outputs": [
        {
          "internalType": "contract IERC20",
          "name": "",
          "type": "address"
        }
      ],
      "stateMutability": "view",
      "type": "function"
    },
    {
      "inputs": [
        {
          "internalType": "address",
          "name": "to",
          "type": "address"
        },
        {
          "internalType": "uint256",
          "name": "amount",
          "type": "uint256"
        }
      ],
      "name": "withdrawUSDT",
      "outputs": [],
      "stateMutability": "nonpayable",
      "type": "function"
    }
  ],
  "bytecode": "0x60806040523480156200001157600080fd5b506040516200119d3803806200119d833981810160405281019062000037919062000261565b620000576200004b620000f060201b60201c565b620000f860201b60201c565b6001808190555082600260006101000a81548173ffffffffffffffffffffffffffffffffffffffff021916908373ffffffffffffffffffffffffffffffffffffffff16021790555081600360006101000a81548173ffffffffffffffffffffffffffffffffffffffff021916908373ffffffffffffffffffffffffffffffffffffffff16021790555080600481905550505050620002bd565b600033905090565b60008060009054906101000a900473ffffffffffffffffffffffffffffffffffffffff169050816000806101000a81548173ffffffffffffffffffffffffffffffffffffffff021916908373ffffffffffffffffffffffffffffffffffffffff1602179055508173ffffffffffffffffffffffffffffffffffffffff168173ffffffffffffffffffffffffffffffffffffffff167f8be0079c531659141344cd1fd0a4f28419497f9722a3daafe3b4186f6b6457e060405160405180910390a35050565b600080fd5b600073ffffffffffffffffffffffffffffffffffffffff82169050919050565b6000620001ee82620001c1565b9050919050565b6200020081620001e1565b81146200020c57600080fd5b50565b6000815190506200022081620001f5565b92915050565b6000819050919050565b6200023b8162000226565b81146200024757600080fd5b50565b6000815190506200025b8162000230565b92915050565b6000806000606084860312156200027d576200027c620001bc565b5b60006200028d868287016200020f565b9350506020620002a0868287016200020f565b9250506040620002b3868287016200024a565b9150509250925092565b610ed080620002cd6000396000f3fe608060405234801561001057600080fd5b50600436106100935760003560e01c80638da5cb5b116100665780638da5cb5b146100fa5780639698102214610118578063d96a094a14610134578063f2fde38b14610150578063f5243bfd1461016c57610093565b80631481794e1461009857806361150923146100b4578063715018a6146100d25780638893b5e3146100dc575b600080fd5b6100b260048036038101906100ad919061086a565b61018a565b005b6100bc6102e9565b6040516100c99190610909565b60405180910390f35b6100da61030f565b005b6100e4610323565b6040516100f19190610945565b60405180910390f35b610102610349565b60405161010f919061096f565b60405180910390f35b610132600480360381019061012d919061098a565b610372565b005b61014e6004803603810190610149919061098a565b610384565b005b61016a600480360381019061016591906109b7565b6105a6565b005b610174610629565b60405161018191906109f3565b60405180910390f35b61019261062f565b600073ffffffffffffffffffffffffffffffffffffffff168273ffffffffffffffffffffffffffffffffffffffff1603610201576040517f08c379a00000000000000000000000000000000000000000000000000000000081526004016101f890610a6b565b60405180910390fd5b60008111610244576040517f08c379a000000000000000000000000000000000000000000000000000000000815260040161023b90610ad7565b60405180910390fd5b600260009054906101000a900473ffffffffffffffffffffffffffffffffffffffff1673ffffffffffffffffffffffffffffffffffffffff1663a9059cbb83836040518363ffffffff1660e01b81526004016102a1929190610af7565b6020604051808303816000875af11580156102c0573d6000803e3d6000fd5b505050506040513d601f19601f820116820180604052508101906102e49190610b58565b505050565b600260009054906101000a900473ffffffffffffffffffffffffffffffffffffffff1681565b61031761062f565b61032160006106ad565b565b600360009054906101000a900473ffffffffffffffffffffffffffffffffffffffff1681565b60008060009054906101000a900473ffffffffffffffffffffffffffffffffffffffff16905090565b61037a61062f565b8060048190555050565b61038c610771565b600081116103cf576040517f08c379a00000000000000000000000000000000000000000000000000000000081526004016103c690610ad7565b60405180910390fd5b6000620f4240600454836103e39190610bb4565b6103ed9190610c25565b9050600260009054906101000a900473ffffffffffffffffffffffffffffffffffffffff1673ffffffffffffffffffffffffffffffffffffffff166323b872dd3330856040518463ffffffff1660e01b815260040161044e93929190610c56565b6020604051808303816000875af115801561046d573d6000803e3d6000fd5b505050506040513d601f19601f820116820180604052508101906104919190610b58565b6104d0576040517f08c379a00000000000000000000000000000000000000000000000000000000081526004016104c790610cd9565b60405180910390fd5b600360009054906101000a900473ffffffffffffffffffffffffffffffffffffffff1673ffffffffffffffffffffffffffffffffffffffff166340c10f1933836040518363ffffffff1660e01b815260040161052d929190610af7565b600060405180830381600087803b15801561054757600080fd5b505af115801561055b573d6000803e3d6000fd5b505050507f12cb4648cf3058b17ceeb33e579f8b0bc269fe0843f3900b8e24b6c54871703c33838360405161059293929190610cf9565b60405180910390a1506105a36107c0565b50565b6105ae61062f565b600073ffffffffffffffffffffffffffffffffffffffff168173ffffffffffffffffffffffffffffffffffffffff160361061d576040517f08c379a000000000000000000000000000000000000000000000000000000000815260040161061490610da2565b60405180910390fd5b610626816106ad565b50565b60045481565b6106376107c9565b73ffffffffffffffffffffffffffffffffffffffff16610655610349565b73ffffffffffffffffffffffffffffffffffffffff16146106ab576040517f08c379a00000000000000000000000000000000000000000000000000000000081526004016106a290610e0e565b60405180910390fd5b565b60008060009054906101000a900473ffffffffffffffffffffffffffffffffffffffff169050816000806101000a81548173ffffffffffffffffffffffffffffffffffffffff021916908373ffffffffffffffffffffffffffffffffffffffff1602179055508173ffffffffffffffffffffffffffffffffffffffff168173ffffffffffffffffffffffffffffffffffffffff167f8be0079c531659141344cd1fd0a4f28419497f9722a3daafe3b4186f6b6457e060405160405180910390a35050565b6002600154036107b6576040517f08c379a00000000000000000000000000000000000000000000000000000000081526004016107ad90610e7a565b60405180910390fd5b6002600181905550565b60018081905550565b600033905090565b600080fd5b600073ffffffffffffffffffffffffffffffffffffffff82169050919050565b6000610801826107d6565b9050919050565b610811816107f6565b811461081c57600080fd5b50565b60008135905061082e81610808565b92915050565b6000819050919050565b61084781610834565b811461085257600080fd5b50565b6000813590506108648161083e565b92915050565b60008060408385031215610881576108806107d1565b5b600061088f8582860161081f565b92505060206108a085828601610855565b9150509250929050565b6000819050919050565b60006108cf6108ca6108c5846107d6565b6108aa565b6107d6565b9050919050565b60006108e1826108b4565b9050919050565b60006108f3826108d6565b9050919050565b610903816108e8565b82525050565b600060208201905061091e60008301846108fa565b92915050565b600061092f826108d6565b9050919050565b61093f81610924565b82525050565b600060208201905061095a6000830184610936565b92915050565b610969816107f6565b82525050565b60006020820190506109846000830184610960565b92915050565b6000602082840312156109a05761099f6107d1565b5b60006109ae84828501610855565b91505092915050565b6000602082840312156109cd576109cc6107d1565b5b60006109db8482850161081f565b91505092915050565b6109ed81610834565b82525050565b6000602082019050610a0860008301846109e4565b92915050565b600082825260208201905092915050565b7f496e76616c696420616464726573730000000000000000000000000000000000600082015250565b6000610a55600f83610a0e565b9150610a6082610a1f565b602082019050919050565b60006020820190508181036000830152610a8481610a48565b9050919050565b7f416d6f756e74206d7573742062652067726561746572207468616e2030000000600082015250565b6000610ac1601d83610a0e565b9150610acc82610a8b565b602082019050919050565b60006020820190508181036000830152610af081610ab4565b9050919050565b6000604082019050610b0c6000830185610960565b610b1960208301846109e4565b9392505050565b60008115159050919050565b610b3581610b20565b8114610b4057600080fd5b50565b600081519050610b5281610b2c565b92915050565b600060208284031215610b6e57610b6d6107d1565b5b6000610b7c84828501610b43565b91505092915050565b7f4e487b7100000000000000000000000000000000000000000000000000000000600052601160045260246000fd5b6000610bbf82610834565b9150610bca83610834565b9250828202610bd881610834565b91508282048414831517610bef57610bee610b85565b5b5092915050565b7f4e487b7100000000000000000000000000000000000000000000000000000000600052601260045260246000fd5b6000610c3082610834565b9150610c3b83610834565b925082610c4b57610c4a610bf6565b5b828204905092915050565b6000606082019050610c6b6000830186610960565b610c786020830185610960565b610c8560408301846109e4565b949350505050565b7f55534454207472616e73666572206661696c6564000000000000000000000000600082015250565b6000610cc3601483610a0e565b9150610cce82610c8d565b602082019050919050565b60006020820190508181036000830152610cf281610cb6565b9050919050565b6000606082019050610d0e6000830186610960565b610d1b60208301856109e4565b610d2860408301846109e4565b949350505050565b7f4f776e61626c653a206e6577206f776e657220697320746865207a65726f206160008201527f6464726573730000000000000000000000000000000000000000000000000000602082015250565b6000610d8c602683610a0e565b9150610d9782610d30565b604082019050919050565b60006020820190508181036000830152610dbb81610d7f565b9050919050565b7f4f776e61626c653a2063616c6c6572206973206e6f7420746865206f776e6572600082015250565b6000610df8602083610a0e565b9150610e0382610dc2565b602082019050919050565b60006020820190508181036000830152610e2781610deb565b9050919050565b7f5265656e7472616e637947756172643a207265656e7472616e742063616c6c00600082015250565b6000610e64601f83610a0e565b9150610e6f82610e2e565b602082019050919050565b60006020820190508181036000830152610e9381610e57565b905091905056fea2646970667358221220ec620a6b49594b7d728a63a5622ae06cb26904205abe456b0a9bb5c92b0998ad64736f6c63430008130033",
  "linkReferences": {},
  "deployedLinkReferences": {}
}